{
  "contractName": "danceNFT",
  "abi": [
    {
      "inputs": [],
      "stateMutability": "nonpayable",
      "type": "constructor"
    },
    {
      "anonymous": false,
      "inputs": [
        {
          "indexed": true,
          "internalType": "address",
          "name": "account",
          "type": "address"
        },
        {
          "indexed": true,
          "internalType": "address",
          "name": "operator",
          "type": "address"
        },
        {
          "indexed": false,
          "internalType": "bool",
          "name": "approved",
          "type": "bool"
        }
      ],
      "name": "ApprovalForAll",
      "type": "event"
    },
    {
      "anonymous": false,
      "inputs": [
        {
          "indexed": true,
          "internalType": "address",
          "name": "previousOwner",
          "type": "address"
        },
        {
          "indexed": true,
          "internalType": "address",
          "name": "newOwner",
          "type": "address"
        }
      ],
      "name": "OwnershipTransferred",
      "type": "event"
    },
    {
      "anonymous": false,
      "inputs": [
        {
          "indexed": true,
          "internalType": "address",
          "name": "operator",
          "type": "address"
        },
        {
          "indexed": true,
          "internalType": "address",
          "name": "from",
          "type": "address"
        },
        {
          "indexed": true,
          "internalType": "address",
          "name": "to",
          "type": "address"
        },
        {
          "indexed": false,
          "internalType": "uint256[]",
          "name": "ids",
          "type": "uint256[]"
        },
        {
          "indexed": false,
          "internalType": "uint256[]",
          "name": "values",
          "type": "uint256[]"
        }
      ],
      "name": "TransferBatch",
      "type": "event"
    },
    {
      "anonymous": false,
      "inputs": [
        {
          "indexed": true,
          "internalType": "address",
          "name": "operator",
          "type": "address"
        },
        {
          "indexed": true,
          "internalType": "address",
          "name": "from",
          "type": "address"
        },
        {
          "indexed": true,
          "internalType": "address",
          "name": "to",
          "type": "address"
        },
        {
          "indexed": false,
          "internalType": "uint256",
          "name": "id",
          "type": "uint256"
        },
        {
          "indexed": false,
          "internalType": "uint256",
          "name": "value",
          "type": "uint256"
        }
      ],
      "name": "TransferSingle",
      "type": "event"
    },
    {
      "anonymous": false,
      "inputs": [
        {
          "indexed": false,
          "internalType": "string",
          "name": "value",
          "type": "string"
        },
        {
          "indexed": true,
          "internalType": "uint256",
          "name": "id",
          "type": "uint256"
        }
      ],
      "name": "URI",
      "type": "event"
    },
    {
      "inputs": [
        {
          "internalType": "address",
          "name": "account",
          "type": "address"
        },
        {
          "internalType": "uint256",
          "name": "id",
          "type": "uint256"
        }
      ],
      "name": "balanceOf",
      "outputs": [
        {
          "internalType": "uint256",
          "name": "",
          "type": "uint256"
        }
      ],
      "stateMutability": "view",
      "type": "function"
    },
    {
      "inputs": [
        {
          "internalType": "address[]",
          "name": "accounts",
          "type": "address[]"
        },
        {
          "internalType": "uint256[]",
          "name": "ids",
          "type": "uint256[]"
        }
      ],
      "name": "balanceOfBatch",
      "outputs": [
        {
          "internalType": "uint256[]",
          "name": "",
          "type": "uint256[]"
        }
      ],
      "stateMutability": "view",
      "type": "function"
    },
    {
      "inputs": [
        {
          "internalType": "uint256",
          "name": "id",
          "type": "uint256"
        }
      ],
      "name": "exists",
      "outputs": [
        {
          "internalType": "bool",
          "name": "",
          "type": "bool"
        }
      ],
      "stateMutability": "view",
      "type": "function"
    },
    {
      "inputs": [
        {
          "internalType": "address",
          "name": "account",
          "type": "address"
        },
        {
          "internalType": "address",
          "name": "operator",
          "type": "address"
        }
      ],
      "name": "isApprovedForAll",
      "outputs": [
        {
          "internalType": "bool",
          "name": "",
          "type": "bool"
        }
      ],
      "stateMutability": "view",
      "type": "function"
    },
    {
      "inputs": [],
      "name": "owner",
      "outputs": [
        {
          "internalType": "address",
          "name": "",
          "type": "address"
        }
      ],
      "stateMutability": "view",
      "type": "function"
    },
    {
      "inputs": [],
      "name": "renounceOwnership",
      "outputs": [],
      "stateMutability": "nonpayable",
      "type": "function"
    },
    {
      "inputs": [
        {
          "internalType": "address",
          "name": "from",
          "type": "address"
        },
        {
          "internalType": "address",
          "name": "to",
          "type": "address"
        },
        {
          "internalType": "uint256[]",
          "name": "ids",
          "type": "uint256[]"
        },
        {
          "internalType": "uint256[]",
          "name": "amounts",
          "type": "uint256[]"
        },
        {
          "internalType": "bytes",
          "name": "data",
          "type": "bytes"
        }
      ],
      "name": "safeBatchTransferFrom",
      "outputs": [],
      "stateMutability": "nonpayable",
      "type": "function"
    },
    {
      "inputs": [
        {
          "internalType": "address",
          "name": "from",
          "type": "address"
        },
        {
          "internalType": "address",
          "name": "to",
          "type": "address"
        },
        {
          "internalType": "uint256",
          "name": "id",
          "type": "uint256"
        },
        {
          "internalType": "uint256",
          "name": "amount",
          "type": "uint256"
        },
        {
          "internalType": "bytes",
          "name": "data",
          "type": "bytes"
        }
      ],
      "name": "safeTransferFrom",
      "outputs": [],
      "stateMutability": "nonpayable",
      "type": "function"
    },
    {
      "inputs": [
        {
          "internalType": "address",
          "name": "operator",
          "type": "address"
        },
        {
          "internalType": "bool",
          "name": "approved",
          "type": "bool"
        }
      ],
      "name": "setApprovalForAll",
      "outputs": [],
      "stateMutability": "nonpayable",
      "type": "function"
    },
    {
      "inputs": [
        {
          "internalType": "bytes4",
          "name": "interfaceId",
          "type": "bytes4"
        }
      ],
      "name": "supportsInterface",
      "outputs": [
        {
          "internalType": "bool",
          "name": "",
          "type": "bool"
        }
      ],
      "stateMutability": "view",
      "type": "function"
    },
    {
      "inputs": [
        {
          "internalType": "uint256",
          "name": "id",
          "type": "uint256"
        }
      ],
      "name": "totalSupply",
      "outputs": [
        {
          "internalType": "uint256",
          "name": "",
          "type": "uint256"
        }
      ],
      "stateMutability": "view",
      "type": "function"
    },
    {
      "inputs": [
        {
          "internalType": "address",
          "name": "newOwner",
          "type": "address"
        }
      ],
      "name": "transferOwnership",
      "outputs": [],
      "stateMutability": "nonpayable",
      "type": "function"
    },
    {
      "inputs": [
        {
          "internalType": "uint256",
          "name": "",
          "type": "uint256"
        }
      ],
      "name": "uri",
      "outputs": [
        {
          "internalType": "string",
          "name": "",
          "type": "string"
        }
      ],
      "stateMutability": "view",
      "type": "function"
    },
    {
      "inputs": [
        {
          "internalType": "string",
          "name": "newuri",
          "type": "string"
        }
      ],
      "name": "setURI",
      "outputs": [],
      "stateMutability": "nonpayable",
      "type": "function"
    },
    {
      "inputs": [
        {
          "internalType": "address",
          "name": "account",
          "type": "address"
        },
        {
          "internalType": "uint256",
          "name": "id",
          "type": "uint256"
        },
        {
          "internalType": "uint256",
          "name": "amount",
          "type": "uint256"
        },
        {
          "internalType": "bytes",
          "name": "data",
          "type": "bytes"
        }
      ],
      "name": "mint",
      "outputs": [],
      "stateMutability": "nonpayable",
      "type": "function"
    },
    {
      "inputs": [
        {
          "internalType": "address",
          "name": "to",
          "type": "address"
        },
        {
          "internalType": "uint256[]",
          "name": "ids",
          "type": "uint256[]"
        },
        {
          "internalType": "uint256[]",
          "name": "amounts",
          "type": "uint256[]"
        },
        {
          "internalType": "bytes",
          "name": "data",
          "type": "bytes"
        }
      ],
      "name": "mintBatch",
      "outputs": [],
      "stateMutability": "nonpayable",
      "type": "function"
    },
    {
      "inputs": [
        {
          "internalType": "uint256",
          "name": "id",
          "type": "uint256"
        },
        {
          "internalType": "uint256",
          "name": "amount",
          "type": "uint256"
        },
        {
          "internalType": "address",
          "name": "_address",
          "type": "address"
        }
      ],
      "name": "remove",
      "outputs": [],
      "stateMutability": "nonpayable",
      "type": "function"
    },
    {
      "inputs": [
        {
          "internalType": "address",
          "name": "_address",
          "type": "address"
        }
      ],
      "name": "getAllNFTCodesByAddress",
      "outputs": [
        {
          "internalType": "uint256[]",
          "name": "",
          "type": "uint256[]"
        }
      ],
      "stateMutability": "view",
      "type": "function"
    }
  ],
  "bytecode": "0x60806040523480156200001157600080fd5b5060405180608001604052806046815260200162004cdc604691396200003d81620000ae60201b60201c565b506200005e62000052620000ca60201b60201c565b620000d260201b60201c565b62000083336001600a604051806020016040528060008152506200019860201b60201c565b620000a83360026014604051806020016040528060008152506200019860201b60201c565b620013bd565b8060029080519060200190620000c692919062000ae8565b5050565b600033905090565b6000600360009054906101000a900473ffffffffffffffffffffffffffffffffffffffff16905081600360006101000a81548173ffffffffffffffffffffffffffffffffffffffff021916908373ffffffffffffffffffffffffffffffffffffffff1602179055508173ffffffffffffffffffffffffffffffffffffffff168173ffffffffffffffffffffffffffffffffffffffff167f8be0079c531659141344cd1fd0a4f28419497f9722a3daafe3b4186f6b6457e060405160405180910390a35050565b600073ffffffffffffffffffffffffffffffffffffffff168473ffffffffffffffffffffffffffffffffffffffff1614156200020b576040517f08c379a0000000000000000000000000000000000000000000000000000000008152600401620002029062000c1f565b60405180910390fd5b60006200021d620000ca60201b60201c565b9050620002568160008762000238886200035d60201b60201c565b62000249886200035d60201b60201c565b87620003de60201b60201c565b8260008086815260200190815260200160002060008773ffffffffffffffffffffffffffffffffffffffff1673ffffffffffffffffffffffffffffffffffffffff1681526020019081526020016000206000828254620002b7919062000c7a565b925050819055508473ffffffffffffffffffffffffffffffffffffffff16600073ffffffffffffffffffffffffffffffffffffffff168273ffffffffffffffffffffffffffffffffffffffff167fc3d58168c5ae7397731d063d5bbf3d657854427343f4c083240f7aacaa2d0f6287876040516200033792919062000ce8565b60405180910390a462000356816000878787876200052e60201b60201c565b5050505050565b60606000600167ffffffffffffffff8111156200037f576200037e62000d15565b5b604051908082528060200260200182016040528015620003ae5781602001602082028036833780820191505090505b5090508281600081518110620003c957620003c862000d44565b5b60200260200101818152505080915050919050565b60005b83518110156200050a576200043884828151811062000405576200040462000d44565b5b602002602001015184838151811062000423576200042262000d44565b5b6020026020010151886200072860201b60201c565b6000620004698686848151811062000455576200045462000d44565b5b60200260200101516200086060201b60201c565b1415620004f457600560008673ffffffffffffffffffffffffffffffffffffffff1673ffffffffffffffffffffffffffffffffffffffff168152602001908152602001600020848281518110620004c557620004c462000d44565b5b602002602001015190806001815401808255809150506001900390600052602060002001600090919091909150555b8080620005019062000d73565b915050620003e1565b50620005268686868686866200092c60201b62000e181760201c565b505050505050565b6200055a8473ffffffffffffffffffffffffffffffffffffffff1662000acd60201b62000f921760201c565b1562000720578373ffffffffffffffffffffffffffffffffffffffff1663f23a6e6187878686866040518663ffffffff1660e01b8152600401620005a395949392919062000eaa565b6020604051808303816000875af1925050508015620005e257506040513d601f19601f82011682018060405250810190620005df919062000f7a565b60015b6200069457620005f162000fb9565b806308c379a014156200065557506200060962001014565b8062000616575062000657565b806040517f08c379a00000000000000000000000000000000000000000000000000000000081526004016200064c919062001102565b60405180910390fd5b505b6040517f08c379a00000000000000000000000000000000000000000000000000000000081526004016200068b906200119c565b60405180910390fd5b63f23a6e6160e01b7bffffffffffffffffffffffffffffffffffffffffffffffffffffffff1916817bffffffffffffffffffffffffffffffffffffffffffffffffffffffff1916146200071e576040517f08c379a0000000000000000000000000000000000000000000000000000000008152600401620007159062001234565b60405180910390fd5b505b505050505050565b6000600560008373ffffffffffffffffffffffffffffffffffffffff1673ffffffffffffffffffffffffffffffffffffffff168152602001908152602001600020905060005b818054905081101562000859578482828154811062000792576200079162000d44565b5b9060005260206000200154148015620007bb5750620007b883866200086060201b60201c565b84145b1562000843578160018380549050620007d5919062001256565b81548110620007e957620007e862000d44565b5b90600052602060002001548282815481106200080a576200080962000d44565b5b9060005260206000200181905550818054806200082c576200082b62001291565b5b600190038181906000526020600020016000905590555b8080620008509062000d73565b9150506200076e565b5050505050565b60008073ffffffffffffffffffffffffffffffffffffffff168373ffffffffffffffffffffffffffffffffffffffff161415620008d4576040517f08c379a0000000000000000000000000000000000000000000000000000000008152600401620008cb9062001336565b60405180910390fd5b60008083815260200190815260200160002060008473ffffffffffffffffffffffffffffffffffffffff1673ffffffffffffffffffffffffffffffffffffffff16815260200190815260200160002054905092915050565b6200094786868686868662000ae060201b62000fa51760201c565b600073ffffffffffffffffffffffffffffffffffffffff168573ffffffffffffffffffffffffffffffffffffffff16141562000a065760005b835181101562000a0457828181518110620009a0576200099f62000d44565b5b602002602001015160046000868481518110620009c257620009c162000d44565b5b602002602001015181526020019081526020016000206000828254620009e9919062000c7a565b9250508190555080620009fc9062000d73565b905062000980565b505b600073ffffffffffffffffffffffffffffffffffffffff168473ffffffffffffffffffffffffffffffffffffffff16141562000ac55760005b835181101562000ac35782818151811062000a5f5762000a5e62000d44565b5b60200260200101516004600086848151811062000a815762000a8062000d44565b5b60200260200101518152602001908152602001600020600082825462000aa8919062001256565b925050819055508062000abb9062000d73565b905062000a3f565b505b505050505050565b600080823b905060008111915050919050565b505050505050565b82805462000af69062001387565b90600052602060002090601f01602090048101928262000b1a576000855562000b66565b82601f1062000b3557805160ff191683800117855562000b66565b8280016001018555821562000b66579182015b8281111562000b6557825182559160200191906001019062000b48565b5b50905062000b75919062000b79565b5090565b5b8082111562000b9457600081600090555060010162000b7a565b5090565b600082825260208201905092915050565b7f455243313135353a206d696e7420746f20746865207a65726f2061646472657360008201527f7300000000000000000000000000000000000000000000000000000000000000602082015250565b600062000c0760218362000b98565b915062000c148262000ba9565b604082019050919050565b6000602082019050818103600083015262000c3a8162000bf8565b9050919050565b6000819050919050565b7f4e487b7100000000000000000000000000000000000000000000000000000000600052601160045260246000fd5b600062000c878262000c41565b915062000c948362000c41565b9250827fffffffffffffffffffffffffffffffffffffffffffffffffffffffffffffffff0382111562000ccc5762000ccb62000c4b565b5b828201905092915050565b62000ce28162000c41565b82525050565b600060408201905062000cff600083018562000cd7565b62000d0e602083018462000cd7565b9392505050565b7f4e487b7100000000000000000000000000000000000000000000000000000000600052604160045260246000fd5b7f4e487b7100000000000000000000000000000000000000000000000000000000600052603260045260246000fd5b600062000d808262000c41565b91507fffffffffffffffffffffffffffffffffffffffffffffffffffffffffffffffff82141562000db65762000db562000c4b565b5b600182019050919050565b600073ffffffffffffffffffffffffffffffffffffffff82169050919050565b600062000dee8262000dc1565b9050919050565b62000e008162000de1565b82525050565b600081519050919050565b600082825260208201905092915050565b60005b8381101562000e4257808201518184015260208101905062000e25565b8381111562000e52576000848401525b50505050565b6000601f19601f8301169050919050565b600062000e768262000e06565b62000e82818562000e11565b935062000e9481856020860162000e22565b62000e9f8162000e58565b840191505092915050565b600060a08201905062000ec1600083018862000df5565b62000ed0602083018762000df5565b62000edf604083018662000cd7565b62000eee606083018562000cd7565b818103608083015262000f02818462000e69565b90509695505050505050565b6000604051905090565b600080fd5b60007fffffffff0000000000000000000000000000000000000000000000000000000082169050919050565b62000f548162000f1d565b811462000f6057600080fd5b50565b60008151905062000f748162000f49565b92915050565b60006020828403121562000f935762000f9262000f18565b5b600062000fa38482850162000f63565b91505092915050565b60008160e01c9050919050565b600060033d111562000fdb5760046000803e62000fd860005162000fac565b90505b90565b62000fe98262000e58565b810181811067ffffffffffffffff821117156200100b576200100a62000d15565b5b80604052505050565b600060443d10156200102657620010b3565b6200103062000f0e565b60043d036004823e80513d602482011167ffffffffffffffff821117156200105a575050620010b3565b808201805167ffffffffffffffff8111156200107a5750505050620010b3565b80602083010160043d03850181111562001099575050505050620010b3565b620010aa8260200185018662000fde565b82955050505050505b90565b600081519050919050565b6000620010ce82620010b6565b620010da818562000b98565b9350620010ec81856020860162000e22565b620010f78162000e58565b840191505092915050565b600060208201905081810360008301526200111e8184620010c1565b905092915050565b7f455243313135353a207472616e7366657220746f206e6f6e204552433131353560008201527f526563656976657220696d706c656d656e746572000000000000000000000000602082015250565b60006200118460348362000b98565b9150620011918262001126565b604082019050919050565b60006020820190508181036000830152620011b78162001175565b9050919050565b7f455243313135353a204552433131353552656365697665722072656a6563746560008201527f6420746f6b656e73000000000000000000000000000000000000000000000000602082015250565b60006200121c60288362000b98565b91506200122982620011be565b604082019050919050565b600060208201905081810360008301526200124f816200120d565b9050919050565b6000620012638262000c41565b9150620012708362000c41565b92508282101562001286576200128562000c4b565b5b828203905092915050565b7f4e487b7100000000000000000000000000000000000000000000000000000000600052603160045260246000fd5b7f455243313135353a2062616c616e636520717565727920666f7220746865207a60008201527f65726f2061646472657373000000000000000000000000000000000000000000602082015250565b60006200131e602b8362000b98565b91506200132b82620012c0565b604082019050919050565b6000602082019050818103600083015262001351816200130f565b9050919050565b7f4e487b7100000000000000000000000000000000000000000000000000000000600052602260045260246000fd5b60006002820490506001821680620013a057607f821691505b60208210811415620013b757620013b662001358565b5b50919050565b61390f80620013cd6000396000f3fe608060405234801561001057600080fd5b50600436106101155760003560e01c8063731133e9116100a2578063bd85b03911610071578063bd85b039146102ee578063e840427d1461031e578063e985e9c51461033a578063f242432a1461036a578063f2fde38b1461038657610115565b8063731133e9146102685780638da5cb5b14610284578063a22cb465146102a2578063a4fead44146102be57610115565b80631f7fdffa116100e95780631f7fdffa146101c65780632eb2c2d6146101e25780634e1273f4146101fe5780634f558e791461022e578063715018a61461025e57610115565b8062fdd58e1461011a57806301ffc9a71461014a57806302fe53051461017a5780630e89341c14610196575b600080fd5b610134600480360381019061012f919061224d565b6103a2565b604051610141919061229c565b60405180910390f35b610164600480360381019061015f919061230f565b61046b565b6040516101719190612357565b60405180910390f35b610194600480360381019061018f91906124b8565b61054d565b005b6101b060048036038101906101ab9190612501565b6105d5565b6040516101bd91906125b6565b60405180910390f35b6101e060048036038101906101db9190612741565b610669565b005b6101fc60048036038101906101f791906127fc565b6106f7565b005b6102186004803603810190610213919061298e565b610798565b6040516102259190612ac4565b60405180910390f35b61024860048036038101906102439190612501565b6108b1565b6040516102559190612357565b60405180910390f35b6102666108c5565b005b610282600480360381019061027d9190612ae6565b61094d565b005b61028c6109db565b6040516102999190612b78565b60405180910390f35b6102bc60048036038101906102b79190612bbf565b610a05565b005b6102d860048036038101906102d39190612bff565b610a1b565b6040516102e59190612ac4565b60405180910390f35b61030860048036038101906103039190612501565b610ab2565b604051610315919061229c565b60405180910390f35b61033860048036038101906103339190612c2c565b610acf565b005b610354600480360381019061034f9190612c7f565b610beb565b6040516103619190612357565b60405180910390f35b610384600480360381019061037f9190612cbf565b610c7f565b005b6103a0600480360381019061039b9190612bff565b610d20565b005b60008073ffffffffffffffffffffffffffffffffffffffff168373ffffffffffffffffffffffffffffffffffffffff161415610413576040517f08c379a000000000000000000000000000000000000000000000000000000000815260040161040a90612dc8565b60405180910390fd5b60008083815260200190815260200160002060008473ffffffffffffffffffffffffffffffffffffffff1673ffffffffffffffffffffffffffffffffffffffff16815260200190815260200160002054905092915050565b60007fd9b67a26000000000000000000000000000000000000000000000000000000007bffffffffffffffffffffffffffffffffffffffffffffffffffffffff1916827bffffffffffffffffffffffffffffffffffffffffffffffffffffffff1916148061053657507f0e89341c000000000000000000000000000000000000000000000000000000007bffffffffffffffffffffffffffffffffffffffffffffffffffffffff1916827bffffffffffffffffffffffffffffffffffffffffffffffffffffffff1916145b80610546575061054582610fad565b5b9050919050565b610555611017565b73ffffffffffffffffffffffffffffffffffffffff166105736109db565b73ffffffffffffffffffffffffffffffffffffffff16146105c9576040517f08c379a00000000000000000000000000000000000000000000000000000000081526004016105c090612e34565b60405180910390fd5b6105d28161101f565b50565b6060600280546105e490612e83565b80601f016020809104026020016040519081016040528092919081815260200182805461061090612e83565b801561065d5780601f106106325761010080835404028352916020019161065d565b820191906000526020600020905b81548152906001019060200180831161064057829003601f168201915b50505050509050919050565b610671611017565b73ffffffffffffffffffffffffffffffffffffffff1661068f6109db565b73ffffffffffffffffffffffffffffffffffffffff16146106e5576040517f08c379a00000000000000000000000000000000000000000000000000000000081526004016106dc90612e34565b60405180910390fd5b6106f184848484611039565b50505050565b6106ff611017565b73ffffffffffffffffffffffffffffffffffffffff168573ffffffffffffffffffffffffffffffffffffffff16148061074557506107448561073f611017565b610beb565b5b610784576040517f08c379a000000000000000000000000000000000000000000000000000000000815260040161077b90612f27565b60405180910390fd5b6107918585858585611257565b5050505050565b606081518351146107de576040517f08c379a00000000000000000000000000000000000000000000000000000000081526004016107d590612fb9565b60405180910390fd5b6000835167ffffffffffffffff8111156107fb576107fa61238d565b5b6040519080825280602002602001820160405280156108295781602001602082028036833780820191505090505b50905060005b84518110156108a65761087685828151811061084e5761084d612fd9565b5b602002602001015185838151811061086957610868612fd9565b5b60200260200101516103a2565b82828151811061088957610888612fd9565b5b6020026020010181815250508061089f90613037565b905061082f565b508091505092915050565b6000806108bd83610ab2565b119050919050565b6108cd611017565b73ffffffffffffffffffffffffffffffffffffffff166108eb6109db565b73ffffffffffffffffffffffffffffffffffffffff1614610941576040517f08c379a000000000000000000000000000000000000000000000000000000000815260040161093890612e34565b60405180910390fd5b61094b600061156b565b565b610955611017565b73ffffffffffffffffffffffffffffffffffffffff166109736109db565b73ffffffffffffffffffffffffffffffffffffffff16146109c9576040517f08c379a00000000000000000000000000000000000000000000000000000000081526004016109c090612e34565b60405180910390fd5b6109d584848484611631565b50505050565b6000600360009054906101000a900473ffffffffffffffffffffffffffffffffffffffff16905090565b610a17610a10611017565b83836117c7565b5050565b6060600560008373ffffffffffffffffffffffffffffffffffffffff1673ffffffffffffffffffffffffffffffffffffffff168152602001908152602001600020805480602002602001604051908101604052809291908181526020018280548015610aa657602002820191906000526020600020905b815481526020019060010190808311610a92575b50505050509050919050565b600060046000838152602001908152602001600020549050919050565b6000600560008373ffffffffffffffffffffffffffffffffffffffff1673ffffffffffffffffffffffffffffffffffffffff168152602001908152602001600020905060005b8180549050811015610be45784828281548110610b3557610b34612fd9565b5b9060005260206000200154148015610b555750610b5283866103a2565b84145b15610bd1578160018380549050610b6c9190613080565b81548110610b7d57610b7c612fd9565b5b9060005260206000200154828281548110610b9b57610b9a612fd9565b5b906000526020600020018190555081805480610bba57610bb96130b4565b5b600190038181906000526020600020016000905590555b8080610bdc90613037565b915050610b15565b5050505050565b6000600160008473ffffffffffffffffffffffffffffffffffffffff1673ffffffffffffffffffffffffffffffffffffffff16815260200190815260200160002060008373ffffffffffffffffffffffffffffffffffffffff1673ffffffffffffffffffffffffffffffffffffffff16815260200190815260200160002060009054906101000a900460ff16905092915050565b610c87611017565b73ffffffffffffffffffffffffffffffffffffffff168573ffffffffffffffffffffffffffffffffffffffff161480610ccd5750610ccc85610cc7611017565b610beb565b5b610d0c576040517f08c379a0000000000000000000000000000000000000000000000000000000008152600401610d0390613155565b60405180910390fd5b610d198585858585611934565b5050505050565b610d28611017565b73ffffffffffffffffffffffffffffffffffffffff16610d466109db565b73ffffffffffffffffffffffffffffffffffffffff1614610d9c576040517f08c379a0000000000000000000000000000000000000000000000000000000008152600401610d9390612e34565b60405180910390fd5b600073ffffffffffffffffffffffffffffffffffffffff168173ffffffffffffffffffffffffffffffffffffffff161415610e0c576040517f08c379a0000000000000000000000000000000000000000000000000000000008152600401610e03906131e7565b60405180910390fd5b610e158161156b565b50565b610e26868686868686610fa5565b600073ffffffffffffffffffffffffffffffffffffffff168573ffffffffffffffffffffffffffffffffffffffff161415610ed85760005b8351811015610ed657828181518110610e7a57610e79612fd9565b5b602002602001015160046000868481518110610e9957610e98612fd9565b5b602002602001015181526020019081526020016000206000828254610ebe9190613207565b9250508190555080610ecf90613037565b9050610e5e565b505b600073ffffffffffffffffffffffffffffffffffffffff168473ffffffffffffffffffffffffffffffffffffffff161415610f8a5760005b8351811015610f8857828181518110610f2c57610f2b612fd9565b5b602002602001015160046000868481518110610f4b57610f4a612fd9565b5b602002602001015181526020019081526020016000206000828254610f709190613080565b9250508190555080610f8190613037565b9050610f10565b505b505050505050565b600080823b905060008111915050919050565b505050505050565b60007f01ffc9a7000000000000000000000000000000000000000000000000000000007bffffffffffffffffffffffffffffffffffffffffffffffffffffffff1916827bffffffffffffffffffffffffffffffffffffffffffffffffffffffff1916149050919050565b600033905090565b8060029080519060200190611035929190612102565b5050565b600073ffffffffffffffffffffffffffffffffffffffff168473ffffffffffffffffffffffffffffffffffffffff1614156110a9576040517f08c379a00000000000000000000000000000000000000000000000000000000081526004016110a0906132cf565b60405180910390fd5b81518351146110ed576040517f08c379a00000000000000000000000000000000000000000000000000000000081526004016110e490613361565b60405180910390fd5b60006110f7611017565b905061110881600087878787611bb6565b60005b84518110156111c15783818151811061112757611126612fd9565b5b602002602001015160008087848151811061114557611144612fd9565b5b6020026020010151815260200190815260200160002060008873ffffffffffffffffffffffffffffffffffffffff1673ffffffffffffffffffffffffffffffffffffffff16815260200190815260200160002060008282546111a79190613207565b9250508190555080806111b990613037565b91505061110b565b508473ffffffffffffffffffffffffffffffffffffffff16600073ffffffffffffffffffffffffffffffffffffffff168273ffffffffffffffffffffffffffffffffffffffff167f4a39dc06d4c0dbc64b70af90fd698a233a518aa5d07e595d983b8c0526c8f7fb8787604051611239929190613381565b60405180910390a461125081600087878787611cd8565b5050505050565b815183511461129b576040517f08c379a000000000000000000000000000000000000000000000000000000000815260040161129290613361565b60405180910390fd5b600073ffffffffffffffffffffffffffffffffffffffff168473ffffffffffffffffffffffffffffffffffffffff16141561130b576040517f08c379a00000000000000000000000000000000000000000000000000000000081526004016113029061342a565b60405180910390fd5b6000611315611017565b9050611325818787878787611bb6565b60005b84518110156114d657600085828151811061134657611345612fd9565b5b60200260200101519050600085838151811061136557611364612fd9565b5b60200260200101519050600080600084815260200190815260200160002060008b73ffffffffffffffffffffffffffffffffffffffff1673ffffffffffffffffffffffffffffffffffffffff16815260200190815260200160002054905081811015611406576040517f08c379a00000000000000000000000000000000000000000000000000000000081526004016113fd906134bc565b60405180910390fd5b81810360008085815260200190815260200160002060008c73ffffffffffffffffffffffffffffffffffffffff1673ffffffffffffffffffffffffffffffffffffffff168152602001908152602001600020819055508160008085815260200190815260200160002060008b73ffffffffffffffffffffffffffffffffffffffff1673ffffffffffffffffffffffffffffffffffffffff16815260200190815260200160002060008282546114bb9190613207565b92505081905550505050806114cf90613037565b9050611328565b508473ffffffffffffffffffffffffffffffffffffffff168673ffffffffffffffffffffffffffffffffffffffff168273ffffffffffffffffffffffffffffffffffffffff167f4a39dc06d4c0dbc64b70af90fd698a233a518aa5d07e595d983b8c0526c8f7fb878760405161154d929190613381565b60405180910390a4611563818787878787611cd8565b505050505050565b6000600360009054906101000a900473ffffffffffffffffffffffffffffffffffffffff16905081600360006101000a81548173ffffffffffffffffffffffffffffffffffffffff021916908373ffffffffffffffffffffffffffffffffffffffff1602179055508173ffffffffffffffffffffffffffffffffffffffff168173ffffffffffffffffffffffffffffffffffffffff167f8be0079c531659141344cd1fd0a4f28419497f9722a3daafe3b4186f6b6457e060405160405180910390a35050565b600073ffffffffffffffffffffffffffffffffffffffff168473ffffffffffffffffffffffffffffffffffffffff1614156116a1576040517f08c379a0000000000000000000000000000000000000000000000000000000008152600401611698906132cf565b60405180910390fd5b60006116ab611017565b90506116cc816000876116bd88611eb0565b6116c688611eb0565b87611bb6565b8260008086815260200190815260200160002060008773ffffffffffffffffffffffffffffffffffffffff1673ffffffffffffffffffffffffffffffffffffffff168152602001908152602001600020600082825461172b9190613207565b925050819055508473ffffffffffffffffffffffffffffffffffffffff16600073ffffffffffffffffffffffffffffffffffffffff168273ffffffffffffffffffffffffffffffffffffffff167fc3d58168c5ae7397731d063d5bbf3d657854427343f4c083240f7aacaa2d0f6287876040516117a99291906134dc565b60405180910390a46117c081600087878787611f2a565b5050505050565b8173ffffffffffffffffffffffffffffffffffffffff168373ffffffffffffffffffffffffffffffffffffffff161415611836576040517f08c379a000000000000000000000000000000000000000000000000000000000815260040161182d90613577565b60405180910390fd5b80600160008573ffffffffffffffffffffffffffffffffffffffff1673ffffffffffffffffffffffffffffffffffffffff16815260200190815260200160002060008473ffffffffffffffffffffffffffffffffffffffff1673ffffffffffffffffffffffffffffffffffffffff16815260200190815260200160002060006101000a81548160ff0219169083151502179055508173ffffffffffffffffffffffffffffffffffffffff168373ffffffffffffffffffffffffffffffffffffffff167f17307eab39ab6107e8899845ad3d59bd9653f200f220920489ca2b5937696c31836040516119279190612357565b60405180910390a3505050565b600073ffffffffffffffffffffffffffffffffffffffff168473ffffffffffffffffffffffffffffffffffffffff1614156119a4576040517f08c379a000000000000000000000000000000000000000000000000000000000815260040161199b9061342a565b60405180910390fd5b60006119ae611017565b90506119ce8187876119bf88611eb0565b6119c888611eb0565b87611bb6565b600080600086815260200190815260200160002060008873ffffffffffffffffffffffffffffffffffffffff1673ffffffffffffffffffffffffffffffffffffffff16815260200190815260200160002054905083811015611a65576040517f08c379a0000000000000000000000000000000000000000000000000000000008152600401611a5c906134bc565b60405180910390fd5b83810360008087815260200190815260200160002060008973ffffffffffffffffffffffffffffffffffffffff1673ffffffffffffffffffffffffffffffffffffffff168152602001908152602001600020819055508360008087815260200190815260200160002060008873ffffffffffffffffffffffffffffffffffffffff1673ffffffffffffffffffffffffffffffffffffffff1681526020019081526020016000206000828254611b1a9190613207565b925050819055508573ffffffffffffffffffffffffffffffffffffffff168773ffffffffffffffffffffffffffffffffffffffff168373ffffffffffffffffffffffffffffffffffffffff167fc3d58168c5ae7397731d063d5bbf3d657854427343f4c083240f7aacaa2d0f628888604051611b979291906134dc565b60405180910390a4611bad828888888888611f2a565b50505050505050565b60005b8351811015611cc157611c01848281518110611bd857611bd7612fd9565b5b6020026020010151848381518110611bf357611bf2612fd9565b5b602002602001015188610acf565b6000611c2786868481518110611c1a57611c19612fd9565b5b60200260200101516103a2565b1415611cae57600560008673ffffffffffffffffffffffffffffffffffffffff1673ffffffffffffffffffffffffffffffffffffffff168152602001908152602001600020848281518110611c7f57611c7e612fd9565b5b602002602001015190806001815401808255809150506001900390600052602060002001600090919091909150555b8080611cb990613037565b915050611bb9565b50611cd0868686868686610e18565b505050505050565b611cf78473ffffffffffffffffffffffffffffffffffffffff16610f92565b15611ea8578373ffffffffffffffffffffffffffffffffffffffff1663bc197c8187878686866040518663ffffffff1660e01b8152600401611d3d9594939291906135ec565b6020604051808303816000875af1925050508015611d7957506040513d601f19601f82011682018060405250810190611d769190613669565b60015b611e1f57611d856136a3565b806308c379a01415611de25750611d9a6136c5565b80611da55750611de4565b806040517f08c379a0000000000000000000000000000000000000000000000000000000008152600401611dd991906125b6565b60405180910390fd5b505b6040517f08c379a0000000000000000000000000000000000000000000000000000000008152600401611e16906137cd565b60405180910390fd5b63bc197c8160e01b7bffffffffffffffffffffffffffffffffffffffffffffffffffffffff1916817bffffffffffffffffffffffffffffffffffffffffffffffffffffffff191614611ea6576040517f08c379a0000000000000000000000000000000000000000000000000000000008152600401611e9d9061385f565b60405180910390fd5b505b505050505050565b60606000600167ffffffffffffffff811115611ecf57611ece61238d565b5b604051908082528060200260200182016040528015611efd5781602001602082028036833780820191505090505b5090508281600081518110611f1557611f14612fd9565b5b60200260200101818152505080915050919050565b611f498473ffffffffffffffffffffffffffffffffffffffff16610f92565b156120fa578373ffffffffffffffffffffffffffffffffffffffff1663f23a6e6187878686866040518663ffffffff1660e01b8152600401611f8f95949392919061387f565b6020604051808303816000875af1925050508015611fcb57506040513d601f19601f82011682018060405250810190611fc89190613669565b60015b61207157611fd76136a3565b806308c379a014156120345750611fec6136c5565b80611ff75750612036565b806040517f08c379a000000000000000000000000000000000000000000000000000000000815260040161202b91906125b6565b60405180910390fd5b505b6040517f08c379a0000000000000000000000000000000000000000000000000000000008152600401612068906137cd565b60405180910390fd5b63f23a6e6160e01b7bffffffffffffffffffffffffffffffffffffffffffffffffffffffff1916817bffffffffffffffffffffffffffffffffffffffffffffffffffffffff1916146120f8576040517f08c379a00000000000000000000000000000000000000000000000000000000081526004016120ef9061385f565b60405180910390fd5b505b505050505050565b82805461210e90612e83565b90600052602060002090601f0160209004810192826121305760008555612177565b82601f1061214957805160ff1916838001178555612177565b82800160010185558215612177579182015b8281111561217657825182559160200191906001019061215b565b5b5090506121849190612188565b5090565b5b808211156121a1576000816000905550600101612189565b5090565b6000604051905090565b600080fd5b600080fd5b600073ffffffffffffffffffffffffffffffffffffffff82169050919050565b60006121e4826121b9565b9050919050565b6121f4816121d9565b81146121ff57600080fd5b50565b600081359050612211816121eb565b92915050565b6000819050919050565b61222a81612217565b811461223557600080fd5b50565b60008135905061224781612221565b92915050565b60008060408385031215612264576122636121af565b5b600061227285828601612202565b925050602061228385828601612238565b9150509250929050565b61229681612217565b82525050565b60006020820190506122b1600083018461228d565b92915050565b60007fffffffff0000000000000000000000000000000000000000000000000000000082169050919050565b6122ec816122b7565b81146122f757600080fd5b50565b600081359050612309816122e3565b92915050565b600060208284031215612325576123246121af565b5b6000612333848285016122fa565b91505092915050565b60008115159050919050565b6123518161233c565b82525050565b600060208201905061236c6000830184612348565b92915050565b600080fd5b600080fd5b6000601f19601f8301169050919050565b7f4e487b7100000000000000000000000000000000000000000000000000000000600052604160045260246000fd5b6123c58261237c565b810181811067ffffffffffffffff821117156123e4576123e361238d565b5b80604052505050565b60006123f76121a5565b905061240382826123bc565b919050565b600067ffffffffffffffff8211156124235761242261238d565b5b61242c8261237c565b9050602081019050919050565b82818337600083830152505050565b600061245b61245684612408565b6123ed565b90508281526020810184848401111561247757612476612377565b5b612482848285612439565b509392505050565b600082601f83011261249f5761249e612372565b5b81356124af848260208601612448565b91505092915050565b6000602082840312156124ce576124cd6121af565b5b600082013567ffffffffffffffff8111156124ec576124eb6121b4565b5b6124f88482850161248a565b91505092915050565b600060208284031215612517576125166121af565b5b600061252584828501612238565b91505092915050565b600081519050919050565b600082825260208201905092915050565b60005b8381101561256857808201518184015260208101905061254d565b83811115612577576000848401525b50505050565b60006125888261252e565b6125928185612539565b93506125a281856020860161254a565b6125ab8161237c565b840191505092915050565b600060208201905081810360008301526125d0818461257d565b905092915050565b600067ffffffffffffffff8211156125f3576125f261238d565b5b602082029050602081019050919050565b600080fd5b600061261c612617846125d8565b6123ed565b9050808382526020820190506020840283018581111561263f5761263e612604565b5b835b8181101561266857806126548882612238565b845260208401935050602081019050612641565b5050509392505050565b600082601f83011261268757612686612372565b5b8135612697848260208601612609565b91505092915050565b600067ffffffffffffffff8211156126bb576126ba61238d565b5b6126c48261237c565b9050602081019050919050565b60006126e46126df846126a0565b6123ed565b905082815260208101848484011115612700576126ff612377565b5b61270b848285612439565b509392505050565b600082601f83011261272857612727612372565b5b81356127388482602086016126d1565b91505092915050565b6000806000806080858703121561275b5761275a6121af565b5b600061276987828801612202565b945050602085013567ffffffffffffffff81111561278a576127896121b4565b5b61279687828801612672565b935050604085013567ffffffffffffffff8111156127b7576127b66121b4565b5b6127c387828801612672565b925050606085013567ffffffffffffffff8111156127e4576127e36121b4565b5b6127f087828801612713565b91505092959194509250565b600080600080600060a08688031215612818576128176121af565b5b600061282688828901612202565b955050602061283788828901612202565b945050604086013567ffffffffffffffff811115612858576128576121b4565b5b61286488828901612672565b935050606086013567ffffffffffffffff811115612885576128846121b4565b5b61289188828901612672565b925050608086013567ffffffffffffffff8111156128b2576128b16121b4565b5b6128be88828901612713565b9150509295509295909350565b600067ffffffffffffffff8211156128e6576128e561238d565b5b602082029050602081019050919050565b600061290a612905846128cb565b6123ed565b9050808382526020820190506020840283018581111561292d5761292c612604565b5b835b8181101561295657806129428882612202565b84526020840193505060208101905061292f565b5050509392505050565b600082601f83011261297557612974612372565b5b81356129858482602086016128f7565b91505092915050565b600080604083850312156129a5576129a46121af565b5b600083013567ffffffffffffffff8111156129c3576129c26121b4565b5b6129cf85828601612960565b925050602083013567ffffffffffffffff8111156129f0576129ef6121b4565b5b6129fc85828601612672565b9150509250929050565b600081519050919050565b600082825260208201905092915050565b6000819050602082019050919050565b612a3b81612217565b82525050565b6000612a4d8383612a32565b60208301905092915050565b6000602082019050919050565b6000612a7182612a06565b612a7b8185612a11565b9350612a8683612a22565b8060005b83811015612ab7578151612a9e8882612a41565b9750612aa983612a59565b925050600181019050612a8a565b5085935050505092915050565b60006020820190508181036000830152612ade8184612a66565b905092915050565b60008060008060808587031215612b0057612aff6121af565b5b6000612b0e87828801612202565b9450506020612b1f87828801612238565b9350506040612b3087828801612238565b925050606085013567ffffffffffffffff811115612b5157612b506121b4565b5b612b5d87828801612713565b91505092959194509250565b612b72816121d9565b82525050565b6000602082019050612b8d6000830184612b69565b92915050565b612b9c8161233c565b8114612ba757600080fd5b50565b600081359050612bb981612b93565b92915050565b60008060408385031215612bd657612bd56121af565b5b6000612be485828601612202565b9250506020612bf585828601612baa565b9150509250929050565b600060208284031215612c1557612c146121af565b5b6000612c2384828501612202565b91505092915050565b600080600060608486031215612c4557612c446121af565b5b6000612c5386828701612238565b9350506020612c6486828701612238565b9250506040612c7586828701612202565b9150509250925092565b60008060408385031215612c9657612c956121af565b5b6000612ca485828601612202565b9250506020612cb585828601612202565b9150509250929050565b600080600080600060a08688031215612cdb57612cda6121af565b5b6000612ce988828901612202565b9550506020612cfa88828901612202565b9450506040612d0b88828901612238565b9350506060612d1c88828901612238565b925050608086013567ffffffffffffffff811115612d3d57612d3c6121b4565b5b612d4988828901612713565b9150509295509295909350565b7f455243313135353a2062616c616e636520717565727920666f7220746865207a60008201527f65726f2061646472657373000000000000000000000000000000000000000000602082015250565b6000612db2602b83612539565b9150612dbd82612d56565b604082019050919050565b60006020820190508181036000830152612de181612da5565b9050919050565b7f4f776e61626c653a2063616c6c6572206973206e6f7420746865206f776e6572600082015250565b6000612e1e602083612539565b9150612e2982612de8565b602082019050919050565b60006020820190508181036000830152612e4d81612e11565b9050919050565b7f4e487b7100000000000000000000000000000000000000000000000000000000600052602260045260246000fd5b60006002820490506001821680612e9b57607f821691505b60208210811415612eaf57612eae612e54565b5b50919050565b7f455243313135353a207472616e736665722063616c6c6572206973206e6f742060008201527f6f776e6572206e6f7220617070726f7665640000000000000000000000000000602082015250565b6000612f11603283612539565b9150612f1c82612eb5565b604082019050919050565b60006020820190508181036000830152612f4081612f04565b9050919050565b7f455243313135353a206163636f756e747320616e6420696473206c656e67746860008201527f206d69736d617463680000000000000000000000000000000000000000000000602082015250565b6000612fa3602983612539565b9150612fae82612f47565b604082019050919050565b60006020820190508181036000830152612fd281612f96565b9050919050565b7f4e487b7100000000000000000000000000000000000000000000000000000000600052603260045260246000fd5b7f4e487b7100000000000000000000000000000000000000000000000000000000600052601160045260246000fd5b600061304282612217565b91507fffffffffffffffffffffffffffffffffffffffffffffffffffffffffffffffff82141561307557613074613008565b5b600182019050919050565b600061308b82612217565b915061309683612217565b9250828210156130a9576130a8613008565b5b828203905092915050565b7f4e487b7100000000000000000000000000000000000000000000000000000000600052603160045260246000fd5b7f455243313135353a2063616c6c6572206973206e6f74206f776e6572206e6f7260008201527f20617070726f7665640000000000000000000000000000000000000000000000602082015250565b600061313f602983612539565b915061314a826130e3565b604082019050919050565b6000602082019050818103600083015261316e81613132565b9050919050565b7f4f776e61626c653a206e6577206f776e657220697320746865207a65726f206160008201527f6464726573730000000000000000000000000000000000000000000000000000602082015250565b60006131d1602683612539565b91506131dc82613175565b604082019050919050565b60006020820190508181036000830152613200816131c4565b9050919050565b600061321282612217565b915061321d83612217565b9250827fffffffffffffffffffffffffffffffffffffffffffffffffffffffffffffffff0382111561325257613251613008565b5b828201905092915050565b7f455243313135353a206d696e7420746f20746865207a65726f2061646472657360008201527f7300000000000000000000000000000000000000000000000000000000000000602082015250565b60006132b9602183612539565b91506132c48261325d565b604082019050919050565b600060208201905081810360008301526132e8816132ac565b9050919050565b7f455243313135353a2069647320616e6420616d6f756e7473206c656e6774682060008201527f6d69736d61746368000000000000000000000000000000000000000000000000602082015250565b600061334b602883612539565b9150613356826132ef565b604082019050919050565b6000602082019050818103600083015261337a8161333e565b9050919050565b6000604082019050818103600083015261339b8185612a66565b905081810360208301526133af8184612a66565b90509392505050565b7f455243313135353a207472616e7366657220746f20746865207a65726f20616460008201527f6472657373000000000000000000000000000000000000000000000000000000602082015250565b6000613414602583612539565b915061341f826133b8565b604082019050919050565b6000602082019050818103600083015261344381613407565b9050919050565b7f455243313135353a20696e73756666696369656e742062616c616e636520666f60008201527f72207472616e7366657200000000000000000000000000000000000000000000602082015250565b60006134a6602a83612539565b91506134b18261344a565b604082019050919050565b600060208201905081810360008301526134d581613499565b9050919050565b60006040820190506134f1600083018561228d565b6134fe602083018461228d565b9392505050565b7f455243313135353a2073657474696e6720617070726f76616c2073746174757360008201527f20666f722073656c660000000000000000000000000000000000000000000000602082015250565b6000613561602983612539565b915061356c82613505565b604082019050919050565b6000602082019050818103600083015261359081613554565b9050919050565b600081519050919050565b600082825260208201905092915050565b60006135be82613597565b6135c881856135a2565b93506135d881856020860161254a565b6135e18161237c565b840191505092915050565b600060a0820190506136016000830188612b69565b61360e6020830187612b69565b81810360408301526136208186612a66565b905081810360608301526136348185612a66565b9050818103608083015261364881846135b3565b90509695505050505050565b600081519050613663816122e3565b92915050565b60006020828403121561367f5761367e6121af565b5b600061368d84828501613654565b91505092915050565b60008160e01c9050919050565b600060033d11156136c25760046000803e6136bf600051613696565b90505b90565b600060443d10156136d557613758565b6136dd6121a5565b60043d036004823e80513d602482011167ffffffffffffffff82111715613705575050613758565b808201805167ffffffffffffffff8111156137235750505050613758565b80602083010160043d038501811115613740575050505050613758565b61374f826020018501866123bc565b82955050505050505b90565b7f455243313135353a207472616e7366657220746f206e6f6e204552433131353560008201527f526563656976657220696d706c656d656e746572000000000000000000000000602082015250565b60006137b7603483612539565b91506137c28261375b565b604082019050919050565b600060208201905081810360008301526137e6816137aa565b9050919050565b7f455243313135353a204552433131353552656365697665722072656a6563746560008201527f6420746f6b656e73000000000000000000000000000000000000000000000000602082015250565b6000613849602883612539565b9150613854826137ed565b604082019050919050565b600060208201905081810360008301526138788161383c565b9050919050565b600060a0820190506138946000830188612b69565b6138a16020830187612b69565b6138ae604083018661228d565b6138bb606083018561228d565b81810360808301526138cd81846135b3565b9050969550505050505056fea2646970667358221220d3e762b6557a7aa9f825eabc198a7dc973080503cebc360b2d3742bb7b981b8b64736f6c634300080a003368747470733a2f2f7261772e67697468756275736572636f6e74656e742e636f6d2f476569737444762f7072756562614e4654313135352f6d61696e2f7b69647d2e6a736f6e",
  "immutableReferences": {},
  "source": "// SPDX-License-Identifier: MIT\r\npragma solidity ^0.8.2;\r\nimport \"@openzeppelin/contracts/token/ERC1155/ERC1155.sol\";\r\nimport \"@openzeppelin/contracts/access/Ownable.sol\";\r\nimport \"@openzeppelin/contracts/token/ERC1155/extensions/ERC1155Supply.sol\";\r\ncontract danceNFT is ERC1155, Ownable, ERC1155Supply {\r\n     constructor() ERC1155(\"https://raw.githubusercontent.com/GeistDv/pruebaNFT1155/main/{id}.json\") {\r\n        _mint(msg.sender, 1 , 10 , \"\");\r\n        _mint(msg.sender, 2 , 20 , \"\");\r\n\r\n        //1 m\r\n        //2 h\r\n    }\r\n\r\n    mapping(address => uint[]) private addressToIds;\r\n    function setURI(string memory newuri) public onlyOwner {\r\n        _setURI(newuri);\r\n    }\r\n    function mint(address account, uint256 id, uint256 amount, bytes memory data)\r\n        public\r\n        onlyOwner\r\n    {\r\n        _mint(account, id, amount, data);\r\n    }\r\n    function mintBatch(address to, uint256[] memory ids, uint256[] memory amounts, bytes memory data)\r\n        public\r\n        onlyOwner\r\n    {\r\n        _mintBatch(to, ids, amounts, data);\r\n    }\r\n    // The following functions are overrides required by Solidity.\r\n    function _beforeTokenTransfer(address operator, address from, address to, uint256[] memory ids, uint256[] memory amounts, bytes memory data)\r\n        internal\r\n        override(ERC1155, ERC1155Supply)\r\n    {\r\n        //adding ids to new owner\r\n        for(uint i=0; i < ids.length; i++)\r\n        {\r\n            remove(ids[i], amounts[i], from);\r\n            if(balanceOf(to, ids[i]) == 0){\r\n                addressToIds[to].push(ids[i]);\r\n            }\r\n        }\r\n        super._beforeTokenTransfer(operator, from, to, ids, amounts, data);\r\n    }\r\n    function remove(uint id, uint amount, address _address) public{\r\n        uint[] storage ownerIds  = addressToIds[_address];\r\n        for(uint i=0; i < ownerIds.length; i++)\r\n        {\r\n            if(ownerIds[i] == id && amount == balanceOf(_address, id)){\r\n                ownerIds[i] = ownerIds[ownerIds.length - 1];\r\n                ownerIds.pop();\r\n            }\r\n        }\r\n    }\r\n    function getAllNFTCodesByAddress(address _address) public view returns(uint[] memory)\r\n    {\r\n        return addressToIds[_address];\r\n    }\r\n}\r\n\r\n//0x3CAa1C35E5229EbbAEB70ea471F738a99c02381d",
  "sourcePath": "C:\\Users\\ivan9\\OneDrive\\Documentos\\GitHub\\dancero-ui\\src\\contracts\\danceNFT.sol",
  "compiler": {
    "name": "solc",
    "version": "0.8.10+commit.fc410830.Emscripten.clang"
  },
  "schemaVersion": "3.4.3",
  "updatedAt": "2022-01-22T21:42:08.928Z",
  "devdoc": {
    "kind": "dev",
    "methods": {
      "balanceOf(address,uint256)": {
        "details": "See {IERC1155-balanceOf}. Requirements: - `account` cannot be the zero address."
      },
      "balanceOfBatch(address[],uint256[])": {
        "details": "See {IERC1155-balanceOfBatch}. Requirements: - `accounts` and `ids` must have the same length."
      },
      "exists(uint256)": {
        "details": "Indicates whether any token exist with a given id, or not."
      },
      "isApprovedForAll(address,address)": {
        "details": "See {IERC1155-isApprovedForAll}."
      },
      "owner()": {
        "details": "Returns the address of the current owner."
      },
      "renounceOwnership()": {
        "details": "Leaves the contract without owner. It will not be possible to call `onlyOwner` functions anymore. Can only be called by the current owner. NOTE: Renouncing ownership will leave the contract without an owner, thereby removing any functionality that is only available to the owner."
      },
      "safeBatchTransferFrom(address,address,uint256[],uint256[],bytes)": {
        "details": "See {IERC1155-safeBatchTransferFrom}."
      },
      "safeTransferFrom(address,address,uint256,uint256,bytes)": {
        "details": "See {IERC1155-safeTransferFrom}."
      },
      "setApprovalForAll(address,bool)": {
        "details": "See {IERC1155-setApprovalForAll}."
      },
      "supportsInterface(bytes4)": {
        "details": "See {IERC165-supportsInterface}."
      },
      "totalSupply(uint256)": {
        "details": "Total amount of tokens in with a given id."
      },
      "transferOwnership(address)": {
        "details": "Transfers ownership of the contract to a new account (`newOwner`). Can only be called by the current owner."
      },
      "uri(uint256)": {
        "details": "See {IERC1155MetadataURI-uri}. This implementation returns the same URI for *all* token types. It relies on the token type ID substitution mechanism https://eips.ethereum.org/EIPS/eip-1155#metadata[defined in the EIP]. Clients calling this function must replace the `\\{id\\}` substring with the actual token type ID."
      }
    },
    "version": 1
  },
  "userdoc": {
    "kind": "user",
    "methods": {},
    "version": 1
  }
}