{
  "contractName": "DanceroNft",
  "abi": [
    {
      "inputs": [],
      "stateMutability": "nonpayable",
      "type": "constructor"
    },
    {
      "anonymous": false,
      "inputs": [
        {
          "indexed": true,
          "internalType": "address",
          "name": "owner",
          "type": "address"
        },
        {
          "indexed": true,
          "internalType": "address",
          "name": "approved",
          "type": "address"
        },
        {
          "indexed": true,
          "internalType": "uint256",
          "name": "tokenId",
          "type": "uint256"
        }
      ],
      "name": "Approval",
      "type": "event"
    },
    {
      "anonymous": false,
      "inputs": [
        {
          "indexed": true,
          "internalType": "address",
          "name": "owner",
          "type": "address"
        },
        {
          "indexed": true,
          "internalType": "address",
          "name": "operator",
          "type": "address"
        },
        {
          "indexed": false,
          "internalType": "bool",
          "name": "approved",
          "type": "bool"
        }
      ],
      "name": "ApprovalForAll",
      "type": "event"
    },
    {
      "anonymous": false,
      "inputs": [
        {
          "indexed": true,
          "internalType": "address",
          "name": "from",
          "type": "address"
        },
        {
          "indexed": true,
          "internalType": "address",
          "name": "to",
          "type": "address"
        },
        {
          "indexed": true,
          "internalType": "uint256",
          "name": "tokenId",
          "type": "uint256"
        }
      ],
      "name": "Transfer",
      "type": "event"
    },
    {
      "inputs": [
        {
          "internalType": "address",
          "name": "to",
          "type": "address"
        },
        {
          "internalType": "uint256",
          "name": "tokenId",
          "type": "uint256"
        }
      ],
      "name": "approve",
      "outputs": [],
      "stateMutability": "nonpayable",
      "type": "function"
    },
    {
      "inputs": [
        {
          "internalType": "address",
          "name": "owner",
          "type": "address"
        }
      ],
      "name": "balanceOf",
      "outputs": [
        {
          "internalType": "uint256",
          "name": "",
          "type": "uint256"
        }
      ],
      "stateMutability": "view",
      "type": "function"
    },
    {
      "inputs": [
        {
          "internalType": "uint256",
          "name": "tokenId",
          "type": "uint256"
        }
      ],
      "name": "getApproved",
      "outputs": [
        {
          "internalType": "address",
          "name": "",
          "type": "address"
        }
      ],
      "stateMutability": "view",
      "type": "function"
    },
    {
      "inputs": [
        {
          "internalType": "address",
          "name": "owner",
          "type": "address"
        },
        {
          "internalType": "address",
          "name": "operator",
          "type": "address"
        }
      ],
      "name": "isApprovedForAll",
      "outputs": [
        {
          "internalType": "bool",
          "name": "",
          "type": "bool"
        }
      ],
      "stateMutability": "view",
      "type": "function"
    },
    {
      "inputs": [],
      "name": "name",
      "outputs": [
        {
          "internalType": "string",
          "name": "",
          "type": "string"
        }
      ],
      "stateMutability": "view",
      "type": "function"
    },
    {
      "inputs": [
        {
          "internalType": "uint256",
          "name": "tokenId",
          "type": "uint256"
        }
      ],
      "name": "ownerOf",
      "outputs": [
        {
          "internalType": "address",
          "name": "",
          "type": "address"
        }
      ],
      "stateMutability": "view",
      "type": "function"
    },
    {
      "inputs": [
        {
          "internalType": "address",
          "name": "from",
          "type": "address"
        },
        {
          "internalType": "address",
          "name": "to",
          "type": "address"
        },
        {
          "internalType": "uint256",
          "name": "tokenId",
          "type": "uint256"
        }
      ],
      "name": "safeTransferFrom",
      "outputs": [],
      "stateMutability": "nonpayable",
      "type": "function"
    },
    {
      "inputs": [
        {
          "internalType": "address",
          "name": "from",
          "type": "address"
        },
        {
          "internalType": "address",
          "name": "to",
          "type": "address"
        },
        {
          "internalType": "uint256",
          "name": "tokenId",
          "type": "uint256"
        },
        {
          "internalType": "bytes",
          "name": "_data",
          "type": "bytes"
        }
      ],
      "name": "safeTransferFrom",
      "outputs": [],
      "stateMutability": "nonpayable",
      "type": "function"
    },
    {
      "inputs": [
        {
          "internalType": "address",
          "name": "operator",
          "type": "address"
        },
        {
          "internalType": "bool",
          "name": "approved",
          "type": "bool"
        }
      ],
      "name": "setApprovalForAll",
      "outputs": [],
      "stateMutability": "nonpayable",
      "type": "function"
    },
    {
      "inputs": [
        {
          "internalType": "bytes4",
          "name": "interfaceId",
          "type": "bytes4"
        }
      ],
      "name": "supportsInterface",
      "outputs": [
        {
          "internalType": "bool",
          "name": "",
          "type": "bool"
        }
      ],
      "stateMutability": "view",
      "type": "function"
    },
    {
      "inputs": [],
      "name": "symbol",
      "outputs": [
        {
          "internalType": "string",
          "name": "",
          "type": "string"
        }
      ],
      "stateMutability": "view",
      "type": "function"
    },
    {
      "inputs": [
        {
          "internalType": "address",
          "name": "from",
          "type": "address"
        },
        {
          "internalType": "address",
          "name": "to",
          "type": "address"
        },
        {
          "internalType": "uint256",
          "name": "tokenId",
          "type": "uint256"
        }
      ],
      "name": "transferFrom",
      "outputs": [],
      "stateMutability": "nonpayable",
      "type": "function"
    },
    {
      "inputs": [
        {
          "internalType": "uint256",
          "name": "tokenId",
          "type": "uint256"
        }
      ],
      "name": "tokenURI",
      "outputs": [
        {
          "internalType": "string",
          "name": "",
          "type": "string"
        }
      ],
      "stateMutability": "view",
      "type": "function"
    },
    {
      "inputs": [
        {
          "internalType": "address",
          "name": "to",
          "type": "address"
        }
      ],
      "name": "mintNFT",
      "outputs": [],
      "stateMutability": "nonpayable",
      "type": "function"
    }
  ],
  "bytecode": "0x60806040523480156200001157600080fd5b506040518060400160405280600b81526020017f44616e6365726f204e46540000000000000000000000000000000000000000008152506040518060400160405280600481526020017f444e465400000000000000000000000000000000000000000000000000000000815250816000908051906020019062000096929190620000b8565b508060019080519060200190620000af929190620000b8565b505050620001cd565b828054620000c69062000197565b90600052602060002090601f016020900481019282620000ea576000855562000136565b82601f106200010557805160ff191683800117855562000136565b8280016001018555821562000136579182015b828111156200013557825182559160200191906001019062000118565b5b50905062000145919062000149565b5090565b5b80821115620001645760008160009055506001016200014a565b5090565b7f4e487b7100000000000000000000000000000000000000000000000000000000600052602260045260246000fd5b60006002820490506001821680620001b057607f821691505b60208210811415620001c757620001c662000168565b5b50919050565b6123ea80620001dd6000396000f3fe608060405234801561001057600080fd5b50600436106100ea5760003560e01c80636352211e1161008c578063a22cb46511610066578063a22cb4651461025b578063b88d4fde14610277578063c87b56dd14610293578063e985e9c5146102c3576100ea565b80636352211e146101dd57806370a082311461020d57806395d89b411461023d576100ea565b8063095ea7b3116100c8578063095ea7b31461016d57806323b872dd1461018957806342842e0e146101a557806354ba0f27146101c1576100ea565b806301ffc9a7146100ef57806306fdde031461011f578063081812fc1461013d575b600080fd5b61010960048036038101906101049190611493565b6102f3565b60405161011691906114db565b60405180910390f35b6101276103d5565b604051610134919061158f565b60405180910390f35b610157600480360381019061015291906115e7565b610467565b6040516101649190611655565b60405180910390f35b6101876004803603810190610182919061169c565b6104ec565b005b6101a3600480360381019061019e91906116dc565b610604565b005b6101bf60048036038101906101ba91906116dc565b610664565b005b6101db60048036038101906101d6919061172f565b610684565b005b6101f760048036038101906101f291906115e7565b6106ad565b6040516102049190611655565b60405180910390f35b6102276004803603810190610222919061172f565b61075f565b604051610234919061176b565b60405180910390f35b610245610817565b604051610252919061158f565b60405180910390f35b610275600480360381019061027091906117b2565b6108a9565b005b610291600480360381019061028c9190611927565b6108bf565b005b6102ad60048036038101906102a891906115e7565b610921565b6040516102ba919061158f565b60405180910390f35b6102dd60048036038101906102d891906119aa565b61098b565b6040516102ea91906114db565b60405180910390f35b60007f80ac58cd000000000000000000000000000000000000000000000000000000007bffffffffffffffffffffffffffffffffffffffffffffffffffffffff1916827bffffffffffffffffffffffffffffffffffffffffffffffffffffffff191614806103be57507f5b5e139f000000000000000000000000000000000000000000000000000000007bffffffffffffffffffffffffffffffffffffffffffffffffffffffff1916827bffffffffffffffffffffffffffffffffffffffffffffffffffffffff1916145b806103ce57506103cd82610a1f565b5b9050919050565b6060600080546103e490611a19565b80601f016020809104026020016040519081016040528092919081815260200182805461041090611a19565b801561045d5780601f106104325761010080835404028352916020019161045d565b820191906000526020600020905b81548152906001019060200180831161044057829003601f168201915b5050505050905090565b600061047282610a89565b6104b1576040517f08c379a00000000000000000000000000000000000000000000000000000000081526004016104a890611abd565b60405180910390fd5b6004600083815260200190815260200160002060009054906101000a900473ffffffffffffffffffffffffffffffffffffffff169050919050565b60006104f7826106ad565b90508073ffffffffffffffffffffffffffffffffffffffff168373ffffffffffffffffffffffffffffffffffffffff161415610568576040517f08c379a000000000000000000000000000000000000000000000000000000000815260040161055f90611b4f565b60405180910390fd5b8073ffffffffffffffffffffffffffffffffffffffff16610587610af5565b73ffffffffffffffffffffffffffffffffffffffff1614806105b657506105b5816105b0610af5565b61098b565b5b6105f5576040517f08c379a00000000000000000000000000000000000000000000000000000000081526004016105ec90611be1565b60405180910390fd5b6105ff8383610afd565b505050565b61061561060f610af5565b82610bb6565b610654576040517f08c379a000000000000000000000000000000000000000000000000000000000815260040161064b90611c73565b60405180910390fd5b61065f838383610c94565b505050565b61067f838383604051806020016040528060008152506108bf565b505050565b6001600660008282546106979190611cc2565b925050819055506106aa81600654610ef0565b50565b6000806002600084815260200190815260200160002060009054906101000a900473ffffffffffffffffffffffffffffffffffffffff169050600073ffffffffffffffffffffffffffffffffffffffff168173ffffffffffffffffffffffffffffffffffffffff161415610756576040517f08c379a000000000000000000000000000000000000000000000000000000000815260040161074d90611d8a565b60405180910390fd5b80915050919050565b60008073ffffffffffffffffffffffffffffffffffffffff168273ffffffffffffffffffffffffffffffffffffffff1614156107d0576040517f08c379a00000000000000000000000000000000000000000000000000000000081526004016107c790611e1c565b60405180910390fd5b600360008373ffffffffffffffffffffffffffffffffffffffff1673ffffffffffffffffffffffffffffffffffffffff168152602001908152602001600020549050919050565b60606001805461082690611a19565b80601f016020809104026020016040519081016040528092919081815260200182805461085290611a19565b801561089f5780601f106108745761010080835404028352916020019161089f565b820191906000526020600020905b81548152906001019060200180831161088257829003601f168201915b5050505050905090565b6108bb6108b4610af5565b83836110be565b5050565b6108d06108ca610af5565b83610bb6565b61090f576040517f08c379a000000000000000000000000000000000000000000000000000000000815260040161090690611c73565b60405180910390fd5b61091b8484848461122b565b50505050565b606061092c82610a89565b61096b576040517f08c379a000000000000000000000000000000000000000000000000000000000815260040161096290611eae565b60405180910390fd5b604051806080016040528060438152602001612372604391399050919050565b6000600560008473ffffffffffffffffffffffffffffffffffffffff1673ffffffffffffffffffffffffffffffffffffffff16815260200190815260200160002060008373ffffffffffffffffffffffffffffffffffffffff1673ffffffffffffffffffffffffffffffffffffffff16815260200190815260200160002060009054906101000a900460ff16905092915050565b60007f01ffc9a7000000000000000000000000000000000000000000000000000000007bffffffffffffffffffffffffffffffffffffffffffffffffffffffff1916827bffffffffffffffffffffffffffffffffffffffffffffffffffffffff1916149050919050565b60008073ffffffffffffffffffffffffffffffffffffffff166002600084815260200190815260200160002060009054906101000a900473ffffffffffffffffffffffffffffffffffffffff1673ffffffffffffffffffffffffffffffffffffffff1614159050919050565b600033905090565b816004600083815260200190815260200160002060006101000a81548173ffffffffffffffffffffffffffffffffffffffff021916908373ffffffffffffffffffffffffffffffffffffffff160217905550808273ffffffffffffffffffffffffffffffffffffffff16610b70836106ad565b73ffffffffffffffffffffffffffffffffffffffff167f8c5be1e5ebec7d5bd14f71427d1e84f3dd0314c0f7b2291e5b200ac8c7c3b92560405160405180910390a45050565b6000610bc182610a89565b610c00576040517f08c379a0000000000000000000000000000000000000000000000000000000008152600401610bf790611f40565b60405180910390fd5b6000610c0b836106ad565b90508073ffffffffffffffffffffffffffffffffffffffff168473ffffffffffffffffffffffffffffffffffffffff161480610c7a57508373ffffffffffffffffffffffffffffffffffffffff16610c6284610467565b73ffffffffffffffffffffffffffffffffffffffff16145b80610c8b5750610c8a818561098b565b5b91505092915050565b8273ffffffffffffffffffffffffffffffffffffffff16610cb4826106ad565b73ffffffffffffffffffffffffffffffffffffffff1614610d0a576040517f08c379a0000000000000000000000000000000000000000000000000000000008152600401610d0190611fd2565b60405180910390fd5b600073ffffffffffffffffffffffffffffffffffffffff168273ffffffffffffffffffffffffffffffffffffffff161415610d7a576040517f08c379a0000000000000000000000000000000000000000000000000000000008152600401610d7190612064565b60405180910390fd5b610d85838383611287565b610d90600082610afd565b6001600360008573ffffffffffffffffffffffffffffffffffffffff1673ffffffffffffffffffffffffffffffffffffffff1681526020019081526020016000206000828254610de09190612084565b925050819055506001600360008473ffffffffffffffffffffffffffffffffffffffff1673ffffffffffffffffffffffffffffffffffffffff1681526020019081526020016000206000828254610e379190611cc2565b92505081905550816002600083815260200190815260200160002060006101000a81548173ffffffffffffffffffffffffffffffffffffffff021916908373ffffffffffffffffffffffffffffffffffffffff160217905550808273ffffffffffffffffffffffffffffffffffffffff168473ffffffffffffffffffffffffffffffffffffffff167fddf252ad1be2c89b69c2b068fc378daa952ba7f163c4a11628f55a4df523b3ef60405160405180910390a4505050565b600073ffffffffffffffffffffffffffffffffffffffff168273ffffffffffffffffffffffffffffffffffffffff161415610f60576040517f08c379a0000000000000000000000000000000000000000000000000000000008152600401610f5790612104565b60405180910390fd5b610f6981610a89565b15610fa9576040517f08c379a0000000000000000000000000000000000000000000000000000000008152600401610fa090612170565b60405180910390fd5b610fb560008383611287565b6001600360008473ffffffffffffffffffffffffffffffffffffffff1673ffffffffffffffffffffffffffffffffffffffff16815260200190815260200160002060008282546110059190611cc2565b92505081905550816002600083815260200190815260200160002060006101000a81548173ffffffffffffffffffffffffffffffffffffffff021916908373ffffffffffffffffffffffffffffffffffffffff160217905550808273ffffffffffffffffffffffffffffffffffffffff16600073ffffffffffffffffffffffffffffffffffffffff167fddf252ad1be2c89b69c2b068fc378daa952ba7f163c4a11628f55a4df523b3ef60405160405180910390a45050565b8173ffffffffffffffffffffffffffffffffffffffff168373ffffffffffffffffffffffffffffffffffffffff16141561112d576040517f08c379a0000000000000000000000000000000000000000000000000000000008152600401611124906121dc565b60405180910390fd5b80600560008573ffffffffffffffffffffffffffffffffffffffff1673ffffffffffffffffffffffffffffffffffffffff16815260200190815260200160002060008473ffffffffffffffffffffffffffffffffffffffff1673ffffffffffffffffffffffffffffffffffffffff16815260200190815260200160002060006101000a81548160ff0219169083151502179055508173ffffffffffffffffffffffffffffffffffffffff168373ffffffffffffffffffffffffffffffffffffffff167f17307eab39ab6107e8899845ad3d59bd9653f200f220920489ca2b5937696c318360405161121e91906114db565b60405180910390a3505050565b611236848484610c94565b6112428484848461128c565b611281576040517f08c379a00000000000000000000000000000000000000000000000000000000081526004016112789061226e565b60405180910390fd5b50505050565b505050565b60006112ad8473ffffffffffffffffffffffffffffffffffffffff16611414565b15611407578373ffffffffffffffffffffffffffffffffffffffff1663150b7a026112d6610af5565b8786866040518563ffffffff1660e01b81526004016112f894939291906122e3565b6020604051808303816000875af192505050801561133457506040513d601f19601f820116820180604052508101906113319190612344565b60015b6113b7573d8060008114611364576040519150601f19603f3d011682016040523d82523d6000602084013e611369565b606091505b506000815114156113af576040517f08c379a00000000000000000000000000000000000000000000000000000000081526004016113a69061226e565b60405180910390fd5b805181602001fd5b63150b7a0260e01b7bffffffffffffffffffffffffffffffffffffffffffffffffffffffff1916817bffffffffffffffffffffffffffffffffffffffffffffffffffffffff19161491505061140c565b600190505b949350505050565b600080823b905060008111915050919050565b6000604051905090565b600080fd5b600080fd5b60007fffffffff0000000000000000000000000000000000000000000000000000000082169050919050565b6114708161143b565b811461147b57600080fd5b50565b60008135905061148d81611467565b92915050565b6000602082840312156114a9576114a8611431565b5b60006114b78482850161147e565b91505092915050565b60008115159050919050565b6114d5816114c0565b82525050565b60006020820190506114f060008301846114cc565b92915050565b600081519050919050565b600082825260208201905092915050565b60005b83811015611530578082015181840152602081019050611515565b8381111561153f576000848401525b50505050565b6000601f19601f8301169050919050565b6000611561826114f6565b61156b8185611501565b935061157b818560208601611512565b61158481611545565b840191505092915050565b600060208201905081810360008301526115a98184611556565b905092915050565b6000819050919050565b6115c4816115b1565b81146115cf57600080fd5b50565b6000813590506115e1816115bb565b92915050565b6000602082840312156115fd576115fc611431565b5b600061160b848285016115d2565b91505092915050565b600073ffffffffffffffffffffffffffffffffffffffff82169050919050565b600061163f82611614565b9050919050565b61164f81611634565b82525050565b600060208201905061166a6000830184611646565b92915050565b61167981611634565b811461168457600080fd5b50565b60008135905061169681611670565b92915050565b600080604083850312156116b3576116b2611431565b5b60006116c185828601611687565b92505060206116d2858286016115d2565b9150509250929050565b6000806000606084860312156116f5576116f4611431565b5b600061170386828701611687565b935050602061171486828701611687565b9250506040611725868287016115d2565b9150509250925092565b60006020828403121561174557611744611431565b5b600061175384828501611687565b91505092915050565b611765816115b1565b82525050565b6000602082019050611780600083018461175c565b92915050565b61178f816114c0565b811461179a57600080fd5b50565b6000813590506117ac81611786565b92915050565b600080604083850312156117c9576117c8611431565b5b60006117d785828601611687565b92505060206117e88582860161179d565b9150509250929050565b600080fd5b600080fd5b7f4e487b7100000000000000000000000000000000000000000000000000000000600052604160045260246000fd5b61183482611545565b810181811067ffffffffffffffff82111715611853576118526117fc565b5b80604052505050565b6000611866611427565b9050611872828261182b565b919050565b600067ffffffffffffffff821115611892576118916117fc565b5b61189b82611545565b9050602081019050919050565b82818337600083830152505050565b60006118ca6118c584611877565b61185c565b9050828152602081018484840111156118e6576118e56117f7565b5b6118f18482856118a8565b509392505050565b600082601f83011261190e5761190d6117f2565b5b813561191e8482602086016118b7565b91505092915050565b6000806000806080858703121561194157611940611431565b5b600061194f87828801611687565b945050602061196087828801611687565b9350506040611971878288016115d2565b925050606085013567ffffffffffffffff81111561199257611991611436565b5b61199e878288016118f9565b91505092959194509250565b600080604083850312156119c1576119c0611431565b5b60006119cf85828601611687565b92505060206119e085828601611687565b9150509250929050565b7f4e487b7100000000000000000000000000000000000000000000000000000000600052602260045260246000fd5b60006002820490506001821680611a3157607f821691505b60208210811415611a4557611a446119ea565b5b50919050565b7f4552433732313a20617070726f76656420717565727920666f72206e6f6e657860008201527f697374656e7420746f6b656e0000000000000000000000000000000000000000602082015250565b6000611aa7602c83611501565b9150611ab282611a4b565b604082019050919050565b60006020820190508181036000830152611ad681611a9a565b9050919050565b7f4552433732313a20617070726f76616c20746f2063757272656e74206f776e6560008201527f7200000000000000000000000000000000000000000000000000000000000000602082015250565b6000611b39602183611501565b9150611b4482611add565b604082019050919050565b60006020820190508181036000830152611b6881611b2c565b9050919050565b7f4552433732313a20617070726f76652063616c6c6572206973206e6f74206f7760008201527f6e6572206e6f7220617070726f76656420666f7220616c6c0000000000000000602082015250565b6000611bcb603883611501565b9150611bd682611b6f565b604082019050919050565b60006020820190508181036000830152611bfa81611bbe565b9050919050565b7f4552433732313a207472616e736665722063616c6c6572206973206e6f74206f60008201527f776e6572206e6f7220617070726f766564000000000000000000000000000000602082015250565b6000611c5d603183611501565b9150611c6882611c01565b604082019050919050565b60006020820190508181036000830152611c8c81611c50565b9050919050565b7f4e487b7100000000000000000000000000000000000000000000000000000000600052601160045260246000fd5b6000611ccd826115b1565b9150611cd8836115b1565b9250827fffffffffffffffffffffffffffffffffffffffffffffffffffffffffffffffff03821115611d0d57611d0c611c93565b5b828201905092915050565b7f4552433732313a206f776e657220717565727920666f72206e6f6e657869737460008201527f656e7420746f6b656e0000000000000000000000000000000000000000000000602082015250565b6000611d74602983611501565b9150611d7f82611d18565b604082019050919050565b60006020820190508181036000830152611da381611d67565b9050919050565b7f4552433732313a2062616c616e636520717565727920666f7220746865207a6560008201527f726f206164647265737300000000000000000000000000000000000000000000602082015250565b6000611e06602a83611501565b9150611e1182611daa565b604082019050919050565b60006020820190508181036000830152611e3581611df9565b9050919050565b7f4552433732314d657461646174613a2055524920717565727920666f72206e6f60008201527f6e6578697374656e7420746f6b656e0000000000000000000000000000000000602082015250565b6000611e98602f83611501565b9150611ea382611e3c565b604082019050919050565b60006020820190508181036000830152611ec781611e8b565b9050919050565b7f4552433732313a206f70657261746f7220717565727920666f72206e6f6e657860008201527f697374656e7420746f6b656e0000000000000000000000000000000000000000602082015250565b6000611f2a602c83611501565b9150611f3582611ece565b604082019050919050565b60006020820190508181036000830152611f5981611f1d565b9050919050565b7f4552433732313a207472616e73666572206f6620746f6b656e2074686174206960008201527f73206e6f74206f776e0000000000000000000000000000000000000000000000602082015250565b6000611fbc602983611501565b9150611fc782611f60565b604082019050919050565b60006020820190508181036000830152611feb81611faf565b9050919050565b7f4552433732313a207472616e7366657220746f20746865207a65726f2061646460008201527f7265737300000000000000000000000000000000000000000000000000000000602082015250565b600061204e602483611501565b915061205982611ff2565b604082019050919050565b6000602082019050818103600083015261207d81612041565b9050919050565b600061208f826115b1565b915061209a836115b1565b9250828210156120ad576120ac611c93565b5b828203905092915050565b7f4552433732313a206d696e7420746f20746865207a65726f2061646472657373600082015250565b60006120ee602083611501565b91506120f9826120b8565b602082019050919050565b6000602082019050818103600083015261211d816120e1565b9050919050565b7f4552433732313a20746f6b656e20616c7265616479206d696e74656400000000600082015250565b600061215a601c83611501565b915061216582612124565b602082019050919050565b600060208201905081810360008301526121898161214d565b9050919050565b7f4552433732313a20617070726f766520746f2063616c6c657200000000000000600082015250565b60006121c6601983611501565b91506121d182612190565b602082019050919050565b600060208201905081810360008301526121f5816121b9565b9050919050565b7f4552433732313a207472616e7366657220746f206e6f6e20455243373231526560008201527f63656976657220696d706c656d656e7465720000000000000000000000000000602082015250565b6000612258603283611501565b9150612263826121fc565b604082019050919050565b600060208201905081810360008301526122878161224b565b9050919050565b600081519050919050565b600082825260208201905092915050565b60006122b58261228e565b6122bf8185612299565b93506122cf818560208601611512565b6122d881611545565b840191505092915050565b60006080820190506122f86000830187611646565b6123056020830186611646565b612312604083018561175c565b818103606083015261232481846122aa565b905095945050505050565b60008151905061233e81611467565b92915050565b60006020828403121561235a57612359611431565b5b60006123688482850161232f565b9150509291505056fe68747470733a2f2f697066732e696f2f697066732f516d524e5348746e79695548666d4e694c4547784d5553766d415a5164795136505852396d79797a645534667954a2646970667358221220b1502576f8a97599508c0ee055d5e856c7b2039324abd8acbc5ac1187f69eace64736f6c634300080a0033",
  "immutableReferences": {},
  "source": "// contracts/GameItem.sol\r\n// SPDX-License-Identifier: MIT\r\npragma solidity ^0.8.6;\r\n\r\nimport \"@openzeppelin/contracts/token/ERC721/ERC721.sol\";\r\n\r\ncontract DanceroNft is ERC721 {\r\n    uint256 token_count;\r\n\r\n    constructor() ERC721(\"Dancero NFT\", \"DNFT\") {}\r\n\r\n    function tokenURI(uint256 tokenId) public view virtual override returns (string memory) {\r\n        require(_exists(tokenId), \"ERC721Metadata: URI query for nonexistent token\");\r\n        return \"https://ipfs.io/ipfs/QmRNSHtnyiUHfmNiLEGxMUSvmAZQdyQ6PXR9myyzdU4fyT\";\r\n    }\r\n\r\n    function mintNFT(address to) public\r\n    {\r\n        token_count  += 1;\r\n        _mint(to, token_count);\r\n    }\r\n}",
  "sourcePath": "C:\\Users\\ivan9\\OneDrive\\Documentos\\GitHub\\dancero-ui\\src\\contracts\\DanceroNft.sol",
  "compiler": {
    "name": "solc",
    "version": "0.8.10+commit.fc410830.Emscripten.clang"
  },
  "schemaVersion": "3.4.3",
  "updatedAt": "2022-01-14T13:59:55.627Z",
  "devdoc": {
    "kind": "dev",
    "methods": {
      "approve(address,uint256)": {
        "details": "See {IERC721-approve}."
      },
      "balanceOf(address)": {
        "details": "See {IERC721-balanceOf}."
      },
      "getApproved(uint256)": {
        "details": "See {IERC721-getApproved}."
      },
      "isApprovedForAll(address,address)": {
        "details": "See {IERC721-isApprovedForAll}."
      },
      "name()": {
        "details": "See {IERC721Metadata-name}."
      },
      "ownerOf(uint256)": {
        "details": "See {IERC721-ownerOf}."
      },
      "safeTransferFrom(address,address,uint256)": {
        "details": "See {IERC721-safeTransferFrom}."
      },
      "safeTransferFrom(address,address,uint256,bytes)": {
        "details": "See {IERC721-safeTransferFrom}."
      },
      "setApprovalForAll(address,bool)": {
        "details": "See {IERC721-setApprovalForAll}."
      },
      "supportsInterface(bytes4)": {
        "details": "See {IERC165-supportsInterface}."
      },
      "symbol()": {
        "details": "See {IERC721Metadata-symbol}."
      },
      "tokenURI(uint256)": {
        "details": "See {IERC721Metadata-tokenURI}."
      },
      "transferFrom(address,address,uint256)": {
        "details": "See {IERC721-transferFrom}."
      }
    },
    "version": 1
  },
  "userdoc": {
    "kind": "user",
    "methods": {},
    "version": 1
  }
}